{
  "_format": "hh-sol-artifact-1",
  "contractName": "Parking",
  "sourceName": "contracts/Parking.sol",
  "abi": [
    {
      "inputs": [
        {
          "internalType": "string",
          "name": "parkingName",
          "type": "string"
        },
        {
          "internalType": "string",
          "name": "parkingAddress",
          "type": "string"
        },
        {
          "internalType": "string",
          "name": "parkingCity",
          "type": "string"
        },
        {
          "internalType": "string",
          "name": "parkingState",
          "type": "string"
        },
        {
          "internalType": "string",
          "name": "parkingCountry",
          "type": "string"
        },
        {
          "internalType": "string",
          "name": "parkingZipCode",
          "type": "string"
        },
        {
          "internalType": "uint256",
          "name": "parkingCapacity",
          "type": "uint256"
        },
        {
          "internalType": "uint256",
          "name": "parkingAmount",
          "type": "uint256"
        },
        {
          "internalType": "string",
          "name": "amountUnit",
          "type": "string"
        },
        {
          "internalType": "string",
          "name": "parkingDetails",
          "type": "string"
        },
        {
          "internalType": "string",
          "name": "vehicleType",
          "type": "string"
        }
      ],
      "name": "addParkingToBlockchain",
      "outputs": [],
      "stateMutability": "nonpayable",
      "type": "function"
    },
    {
      "inputs": [],
      "name": "getAllParkingList",
      "outputs": [
        {
          "components": [
            {
              "internalType": "address",
              "name": "owner",
              "type": "address"
            },
            {
              "internalType": "uint256",
              "name": "parkingId",
              "type": "uint256"
            },
            {
              "internalType": "string",
              "name": "parkingName",
              "type": "string"
            },
            {
              "internalType": "string",
              "name": "parkingAddress",
              "type": "string"
            },
            {
              "internalType": "string",
              "name": "parkingCity",
              "type": "string"
            },
            {
              "internalType": "string",
              "name": "parkingState",
              "type": "string"
            },
            {
              "internalType": "string",
              "name": "parkingCountry",
              "type": "string"
            },
            {
              "internalType": "string",
              "name": "parkingZipCode",
              "type": "string"
            },
            {
              "internalType": "uint256",
              "name": "parkingCapacity",
              "type": "uint256"
            },
            {
              "internalType": "uint256",
              "name": "parkingAmount",
              "type": "uint256"
            },
            {
              "internalType": "string",
              "name": "amountUnit",
              "type": "string"
            },
            {
              "internalType": "string",
              "name": "parkingDetails",
              "type": "string"
            },
            {
              "internalType": "string",
              "name": "vehicleType",
              "type": "string"
            },
            {
              "internalType": "uint256",
              "name": "timestamp",
              "type": "uint256"
            }
          ],
          "internalType": "struct Parking.ParkingStruct[]",
          "name": "",
          "type": "tuple[]"
        }
      ],
      "stateMutability": "view",
      "type": "function"
    }
  ],
  "bytecode": "0x608060405260008055600060015534801561001957600080fd5b506110af806100296000396000f3fe608060405234801561001057600080fd5b50600436106100365760003560e01c8063668393bc1461003b578063da3476f214610059575b600080fd5b610043610075565b6040516100509190610de6565b60405180910390f35b610073600480360381019061006e91906109d8565b610675565b005b60606002805480602002602001604051908101604052809291908181526020016000905b8282101561066c57838290600052602060002090600e0201604051806101c00160405290816000820160009054906101000a900473ffffffffffffffffffffffffffffffffffffffff1673ffffffffffffffffffffffffffffffffffffffff1673ffffffffffffffffffffffffffffffffffffffff1681526020016001820154815260200160028201805461012d90610f92565b80601f016020809104026020016040519081016040528092919081815260200182805461015990610f92565b80156101a65780601f1061017b576101008083540402835291602001916101a6565b820191906000526020600020905b81548152906001019060200180831161018957829003601f168201915b505050505081526020016003820180546101bf90610f92565b80601f01602080910402602001604051908101604052809291908181526020018280546101eb90610f92565b80156102385780601f1061020d57610100808354040283529160200191610238565b820191906000526020600020905b81548152906001019060200180831161021b57829003601f168201915b5050505050815260200160048201805461025190610f92565b80601f016020809104026020016040519081016040528092919081815260200182805461027d90610f92565b80156102ca5780601f1061029f576101008083540402835291602001916102ca565b820191906000526020600020905b8154815290600101906020018083116102ad57829003601f168201915b505050505081526020016005820180546102e390610f92565b80601f016020809104026020016040519081016040528092919081815260200182805461030f90610f92565b801561035c5780601f106103315761010080835404028352916020019161035c565b820191906000526020600020905b81548152906001019060200180831161033f57829003601f168201915b5050505050815260200160068201805461037590610f92565b80601f01602080910402602001604051908101604052809291908181526020018280546103a190610f92565b80156103ee5780601f106103c3576101008083540402835291602001916103ee565b820191906000526020600020905b8154815290600101906020018083116103d157829003601f168201915b5050505050815260200160078201805461040790610f92565b80601f016020809104026020016040519081016040528092919081815260200182805461043390610f92565b80156104805780601f1061045557610100808354040283529160200191610480565b820191906000526020600020905b81548152906001019060200180831161046357829003601f168201915b505050505081526020016008820154815260200160098201548152602001600a820180546104ad90610f92565b80601f01602080910402602001604051908101604052809291908181526020018280546104d990610f92565b80156105265780601f106104fb57610100808354040283529160200191610526565b820191906000526020600020905b81548152906001019060200180831161050957829003601f168201915b50505050508152602001600b8201805461053f90610f92565b80601f016020809104026020016040519081016040528092919081815260200182805461056b90610f92565b80156105b85780601f1061058d576101008083540402835291602001916105b8565b820191906000526020600020905b81548152906001019060200180831161059b57829003601f168201915b50505050508152602001600c820180546105d190610f92565b80601f01602080910402602001604051908101604052809291908181526020018280546105fd90610f92565b801561064a5780601f1061061f5761010080835404028352916020019161064a565b820191906000526020600020905b81548152906001019060200180831161062d57829003601f168201915b50505050508152602001600d8201548152505081526020019060010190610099565b50505050905090565b60016000808282546106879190610ebe565b925050819055506002604051806101c001604052803373ffffffffffffffffffffffffffffffffffffffff16815260200160005481526020018d81526020018c81526020018b81526020018a81526020018981526020018881526020018781526020018681526020018581526020018481526020018381526020014281525090806001815401808255809150506001900390600052602060002090600e020160009091909190915060008201518160000160006101000a81548173ffffffffffffffffffffffffffffffffffffffff021916908373ffffffffffffffffffffffffffffffffffffffff16021790555060208201518160010155604082015181600201908051906020019061079c9291906108b8565b5060608201518160030190805190602001906107b99291906108b8565b5060808201518160040190805190602001906107d69291906108b8565b5060a08201518160050190805190602001906107f39291906108b8565b5060c08201518160060190805190602001906108109291906108b8565b5060e082015181600701908051906020019061082d9291906108b8565b506101008201518160080155610120820151816009015561014082015181600a0190805190602001906108619291906108b8565b5061016082015181600b01908051906020019061087f9291906108b8565b5061018082015181600c01908051906020019061089d9291906108b8565b506101a082015181600d015550505050505050505050505050565b8280546108c490610f92565b90600052602060002090601f0160209004810192826108e6576000855561092d565b82601f106108ff57805160ff191683800117855561092d565b8280016001018555821561092d579182015b8281111561092c578251825591602001919060010190610911565b5b50905061093a919061093e565b5090565b5b8082111561095757600081600090555060010161093f565b5090565b600061096e61096984610e39565b610e08565b90508281526020810184848401111561098657600080fd5b610991848285610f50565b509392505050565b600082601f8301126109aa57600080fd5b81356109ba84826020860161095b565b91505092915050565b6000813590506109d281611062565b92915050565b60008060008060008060008060008060006101608c8e0312156109fa57600080fd5b60008c013567ffffffffffffffff811115610a1457600080fd5b610a208e828f01610999565b9b505060208c013567ffffffffffffffff811115610a3d57600080fd5b610a498e828f01610999565b9a505060408c013567ffffffffffffffff811115610a6657600080fd5b610a728e828f01610999565b99505060608c013567ffffffffffffffff811115610a8f57600080fd5b610a9b8e828f01610999565b98505060808c013567ffffffffffffffff811115610ab857600080fd5b610ac48e828f01610999565b97505060a08c013567ffffffffffffffff811115610ae157600080fd5b610aed8e828f01610999565b96505060c0610afe8e828f016109c3565b95505060e0610b0f8e828f016109c3565b9450506101008c013567ffffffffffffffff811115610b2d57600080fd5b610b398e828f01610999565b9350506101208c013567ffffffffffffffff811115610b5757600080fd5b610b638e828f01610999565b9250506101408c013567ffffffffffffffff811115610b8157600080fd5b610b8d8e828f01610999565b9150509295989b509295989b9093969950565b6000610bac8383610c71565b905092915050565b610bbd81610f14565b82525050565b6000610bce82610e79565b610bd88185610e9c565b935083602082028501610bea85610e69565b8060005b85811015610c265784840389528151610c078582610ba0565b9450610c1283610e8f565b925060208a01995050600181019050610bee565b50829750879550505050505092915050565b6000610c4382610e84565b610c4d8185610ead565b9350610c5d818560208601610f5f565b610c6681611051565b840191505092915050565b60006101c083016000830151610c8a6000860182610bb4565b506020830151610c9d6020860182610dd7565b5060408301518482036040860152610cb58282610c38565b91505060608301518482036060860152610ccf8282610c38565b91505060808301518482036080860152610ce98282610c38565b91505060a083015184820360a0860152610d038282610c38565b91505060c083015184820360c0860152610d1d8282610c38565b91505060e083015184820360e0860152610d378282610c38565b915050610100830151610d4e610100860182610dd7565b50610120830151610d63610120860182610dd7565b50610140830151848203610140860152610d7d8282610c38565b915050610160830151848203610160860152610d998282610c38565b915050610180830151848203610180860152610db58282610c38565b9150506101a0830151610dcc6101a0860182610dd7565b508091505092915050565b610de081610f46565b82525050565b60006020820190508181036000830152610e008184610bc3565b905092915050565b6000604051905081810181811067ffffffffffffffff82111715610e2f57610e2e611022565b5b8060405250919050565b600067ffffffffffffffff821115610e5457610e53611022565b5b601f19601f8301169050602081019050919050565b6000819050602082019050919050565b600081519050919050565b600081519050919050565b6000602082019050919050565b600082825260208201905092915050565b600082825260208201905092915050565b6000610ec982610f46565b9150610ed483610f46565b9250827fffffffffffffffffffffffffffffffffffffffffffffffffffffffffffffffff03821115610f0957610f08610fc4565b5b828201905092915050565b6000610f1f82610f26565b9050919050565b600073ffffffffffffffffffffffffffffffffffffffff82169050919050565b6000819050919050565b82818337600083830152505050565b60005b83811015610f7d578082015181840152602081019050610f62565b83811115610f8c576000848401525b50505050565b60006002820490506001821680610faa57607f821691505b60208210811415610fbe57610fbd610ff3565b5b50919050565b7f4e487b7100000000000000000000000000000000000000000000000000000000600052601160045260246000fd5b7f4e487b7100000000000000000000000000000000000000000000000000000000600052602260045260246000fd5b7f4e487b7100000000000000000000000000000000000000000000000000000000600052604160045260246000fd5b6000601f19601f8301169050919050565b61106b81610f46565b811461107657600080fd5b5056fea26469706673582212203638efd511683cf3a3ebc85e6d8fc19d5289757045f3e2963de5d7f22a4b14fd64736f6c63430008000033",
  "linkReferences": {},
  "deployedLinkReferences": {}
}