{
  "_format": "hh-sol-artifact-1",
  "contractName": "Parking",
  "sourceName": "contracts/Parking.sol",
  "abi": [
    {
      "anonymous": false,
      "inputs": [
        {
          "indexed": false,
          "internalType": "address",
          "name": "form",
          "type": "address"
        },
        {
          "indexed": false,
          "internalType": "string",
          "name": "senderName",
          "type": "string"
        },
        {
          "indexed": false,
          "internalType": "address",
          "name": "receiver",
          "type": "address"
        },
        {
          "indexed": false,
          "internalType": "uint256",
          "name": "amount",
          "type": "uint256"
        },
        {
          "indexed": false,
          "internalType": "uint256",
          "name": "timestamp",
          "type": "uint256"
        }
      ],
      "name": "Transfer",
      "type": "event"
    },
    {
      "inputs": [
        {
          "internalType": "address payable",
          "name": "parkingOwner",
          "type": "address"
        },
        {
          "internalType": "string",
          "name": "parkingName",
          "type": "string"
        },
        {
          "internalType": "string",
          "name": "parkingAddress",
          "type": "string"
        },
        {
          "internalType": "uint256",
          "name": "parkingsId",
          "type": "uint256"
        },
        {
          "internalType": "uint256",
          "name": "bookingHour",
          "type": "uint256"
        },
        {
          "internalType": "uint256",
          "name": "parkingCharge",
          "type": "uint256"
        },
        {
          "internalType": "string",
          "name": "parkingFor",
          "type": "string"
        },
        {
          "internalType": "string",
          "name": "vehicleRegistrationNo",
          "type": "string"
        },
        {
          "internalType": "string",
          "name": "bookingBy",
          "type": "string"
        },
        {
          "internalType": "string",
          "name": "idType",
          "type": "string"
        },
        {
          "internalType": "string",
          "name": "idCardNumber",
          "type": "string"
        }
      ],
      "name": "addBookingToBlockchain",
      "outputs": [],
      "stateMutability": "nonpayable",
      "type": "function"
    },
    {
      "inputs": [
        {
          "internalType": "string",
          "name": "parkingName",
          "type": "string"
        },
        {
          "internalType": "string",
          "name": "parkingAddress",
          "type": "string"
        },
        {
          "internalType": "string",
          "name": "parkingCity",
          "type": "string"
        },
        {
          "internalType": "string",
          "name": "parkingState",
          "type": "string"
        },
        {
          "internalType": "string",
          "name": "parkingCountry",
          "type": "string"
        },
        {
          "internalType": "string",
          "name": "parkingZipCode",
          "type": "string"
        },
        {
          "internalType": "uint256",
          "name": "parkingCapacity",
          "type": "uint256"
        },
        {
          "internalType": "uint256",
          "name": "parkingAmount",
          "type": "uint256"
        },
        {
          "internalType": "string",
          "name": "amountUnit",
          "type": "string"
        },
        {
          "internalType": "string",
          "name": "parkingDetails",
          "type": "string"
        },
        {
          "internalType": "string",
          "name": "vehicleType",
          "type": "string"
        }
      ],
      "name": "addParkingToBlockchain",
      "outputs": [],
      "stateMutability": "nonpayable",
      "type": "function"
    },
    {
      "inputs": [],
      "name": "getAllBookingList",
      "outputs": [
        {
          "components": [
            {
              "internalType": "address",
              "name": "bookingOwner",
              "type": "address"
            },
            {
              "internalType": "address",
              "name": "parkingOwner",
              "type": "address"
            },
            {
              "internalType": "uint256",
              "name": "bookingId",
              "type": "uint256"
            },
            {
              "internalType": "string",
              "name": "parkingName",
              "type": "string"
            },
            {
              "internalType": "string",
              "name": "parkingAddress",
              "type": "string"
            },
            {
              "internalType": "uint256",
              "name": "parkingsId",
              "type": "uint256"
            },
            {
              "internalType": "uint256",
              "name": "bookingHour",
              "type": "uint256"
            },
            {
              "internalType": "uint256",
              "name": "parkingCharge",
              "type": "uint256"
            },
            {
              "internalType": "string",
              "name": "parkingFor",
              "type": "string"
            },
            {
              "internalType": "string",
              "name": "vehicleRegistrationNo",
              "type": "string"
            },
            {
              "internalType": "string",
              "name": "bookingBy",
              "type": "string"
            },
            {
              "internalType": "string",
              "name": "idType",
              "type": "string"
            },
            {
              "internalType": "string",
              "name": "idCardNumber",
              "type": "string"
            },
            {
              "internalType": "uint256",
              "name": "timestamp",
              "type": "uint256"
            }
          ],
          "internalType": "struct Parking.ParkingBookingStruct[]",
          "name": "",
          "type": "tuple[]"
        }
      ],
      "stateMutability": "view",
      "type": "function"
    },
    {
      "inputs": [],
      "name": "getAllParkingList",
      "outputs": [
        {
          "components": [
            {
              "internalType": "address",
              "name": "owner",
              "type": "address"
            },
            {
              "internalType": "uint256",
              "name": "parkingId",
              "type": "uint256"
            },
            {
              "internalType": "string",
              "name": "parkingName",
              "type": "string"
            },
            {
              "internalType": "string",
              "name": "parkingAddress",
              "type": "string"
            },
            {
              "internalType": "string",
              "name": "parkingCity",
              "type": "string"
            },
            {
              "internalType": "string",
              "name": "parkingState",
              "type": "string"
            },
            {
              "internalType": "string",
              "name": "parkingCountry",
              "type": "string"
            },
            {
              "internalType": "string",
              "name": "parkingZipCode",
              "type": "string"
            },
            {
              "internalType": "uint256",
              "name": "parkingCapacity",
              "type": "uint256"
            },
            {
              "internalType": "uint256",
              "name": "parkingAmount",
              "type": "uint256"
            },
            {
              "internalType": "string",
              "name": "amountUnit",
              "type": "string"
            },
            {
              "internalType": "string",
              "name": "parkingDetails",
              "type": "string"
            },
            {
              "internalType": "string",
              "name": "vehicleType",
              "type": "string"
            },
            {
              "internalType": "uint256",
              "name": "timestamp",
              "type": "uint256"
            }
          ],
          "internalType": "struct Parking.ParkingStruct[]",
          "name": "",
          "type": "tuple[]"
        }
      ],
      "stateMutability": "view",
      "type": "function"
    }
  ],
  "bytecode": "0x608060405260008055600060015534801561001957600080fd5b50611e03806100296000396000f3fe608060405234801561001057600080fd5b506004361061004c5760003560e01c80635a935799146100515780635c810be31461006d578063668393bc1461008b578063da3476f2146100a9575b600080fd5b61006b60048036038101906100669190611228565b6100c5565b005b610075610374565b6040516100829190611a6f565b60405180910390f35b6100936108b0565b6040516100a09190611a91565b60405180910390f35b6100c360048036038101906100be91906113c0565b610eb0565b005b60018060008282546100d79190611bb3565b925050819055506003604051806101c001604052803373ffffffffffffffffffffffffffffffffffffffff1681526020018d73ffffffffffffffffffffffffffffffffffffffff16815260200160015481526020018c81526020018b81526020018a81526020018981526020018881526020018781526020018681526020018581526020018481526020018381526020014281525090806001815401808255809150506001900390600052602060002090600e020160009091909190915060008201518160000160006101000a81548173ffffffffffffffffffffffffffffffffffffffff021916908373ffffffffffffffffffffffffffffffffffffffff16021790555060208201518160010160006101000a81548173ffffffffffffffffffffffffffffffffffffffff021916908373ffffffffffffffffffffffffffffffffffffffff1602179055506040820151816002015560608201518160030190805190602001906102499291906110f3565b5060808201518160040190805190602001906102669291906110f3565b5060a0820151816005015560c0820151816006015560e082015181600701556101008201518160080190805190602001906102a29291906110f3565b506101208201518160090190805190602001906102c09291906110f3565b5061014082015181600a0190805190602001906102de9291906110f3565b5061016082015181600b0190805190602001906102fc9291906110f3565b5061018082015181600c01908051906020019061031a9291906110f3565b506101a082015181600d015550507f90bc6f36b004b6d2950f6f74b453d548ab37271b2e298aef15c8ad85cd06cd5f33848d894260405161035f959493929190611a15565b60405180910390a15050505050505050505050565b60606003805480602002602001604051908101604052809291908181526020016000905b828210156108a757838290600052602060002090600e0201604051806101c00160405290816000820160009054906101000a900473ffffffffffffffffffffffffffffffffffffffff1673ffffffffffffffffffffffffffffffffffffffff1673ffffffffffffffffffffffffffffffffffffffff1681526020016001820160009054906101000a900473ffffffffffffffffffffffffffffffffffffffff1673ffffffffffffffffffffffffffffffffffffffff1673ffffffffffffffffffffffffffffffffffffffff1681526020016002820154815260200160038201805461048290611ccf565b80601f01602080910402602001604051908101604052809291908181526020018280546104ae90611ccf565b80156104fb5780601f106104d0576101008083540402835291602001916104fb565b820191906000526020600020905b8154815290600101906020018083116104de57829003601f168201915b5050505050815260200160048201805461051490611ccf565b80601f016020809104026020016040519081016040528092919081815260200182805461054090611ccf565b801561058d5780601f106105625761010080835404028352916020019161058d565b820191906000526020600020905b81548152906001019060200180831161057057829003601f168201915b505050505081526020016005820154815260200160068201548152602001600782015481526020016008820180546105c490611ccf565b80601f01602080910402602001604051908101604052809291908181526020018280546105f090611ccf565b801561063d5780601f106106125761010080835404028352916020019161063d565b820191906000526020600020905b81548152906001019060200180831161062057829003601f168201915b5050505050815260200160098201805461065690611ccf565b80601f016020809104026020016040519081016040528092919081815260200182805461068290611ccf565b80156106cf5780601f106106a4576101008083540402835291602001916106cf565b820191906000526020600020905b8154815290600101906020018083116106b257829003601f168201915b50505050508152602001600a820180546106e890611ccf565b80601f016020809104026020016040519081016040528092919081815260200182805461071490611ccf565b80156107615780601f1061073657610100808354040283529160200191610761565b820191906000526020600020905b81548152906001019060200180831161074457829003601f168201915b50505050508152602001600b8201805461077a90611ccf565b80601f01602080910402602001604051908101604052809291908181526020018280546107a690611ccf565b80156107f35780601f106107c8576101008083540402835291602001916107f3565b820191906000526020600020905b8154815290600101906020018083116107d657829003601f168201915b50505050508152602001600c8201805461080c90611ccf565b80601f016020809104026020016040519081016040528092919081815260200182805461083890611ccf565b80156108855780601f1061085a57610100808354040283529160200191610885565b820191906000526020600020905b81548152906001019060200180831161086857829003601f168201915b50505050508152602001600d8201548152505081526020019060010190610398565b50505050905090565b60606002805480602002602001604051908101604052809291908181526020016000905b82821015610ea757838290600052602060002090600e0201604051806101c00160405290816000820160009054906101000a900473ffffffffffffffffffffffffffffffffffffffff1673ffffffffffffffffffffffffffffffffffffffff1673ffffffffffffffffffffffffffffffffffffffff1681526020016001820154815260200160028201805461096890611ccf565b80601f016020809104026020016040519081016040528092919081815260200182805461099490611ccf565b80156109e15780601f106109b6576101008083540402835291602001916109e1565b820191906000526020600020905b8154815290600101906020018083116109c457829003601f168201915b505050505081526020016003820180546109fa90611ccf565b80601f0160208091040260200160405190810160405280929190818152602001828054610a2690611ccf565b8015610a735780601f10610a4857610100808354040283529160200191610a73565b820191906000526020600020905b815481529060010190602001808311610a5657829003601f168201915b50505050508152602001600482018054610a8c90611ccf565b80601f0160208091040260200160405190810160405280929190818152602001828054610ab890611ccf565b8015610b055780601f10610ada57610100808354040283529160200191610b05565b820191906000526020600020905b815481529060010190602001808311610ae857829003601f168201915b50505050508152602001600582018054610b1e90611ccf565b80601f0160208091040260200160405190810160405280929190818152602001828054610b4a90611ccf565b8015610b975780601f10610b6c57610100808354040283529160200191610b97565b820191906000526020600020905b815481529060010190602001808311610b7a57829003601f168201915b50505050508152602001600682018054610bb090611ccf565b80601f0160208091040260200160405190810160405280929190818152602001828054610bdc90611ccf565b8015610c295780601f10610bfe57610100808354040283529160200191610c29565b820191906000526020600020905b815481529060010190602001808311610c0c57829003601f168201915b50505050508152602001600782018054610c4290611ccf565b80601f0160208091040260200160405190810160405280929190818152602001828054610c6e90611ccf565b8015610cbb5780601f10610c9057610100808354040283529160200191610cbb565b820191906000526020600020905b815481529060010190602001808311610c9e57829003601f168201915b505050505081526020016008820154815260200160098201548152602001600a82018054610ce890611ccf565b80601f0160208091040260200160405190810160405280929190818152602001828054610d1490611ccf565b8015610d615780601f10610d3657610100808354040283529160200191610d61565b820191906000526020600020905b815481529060010190602001808311610d4457829003601f168201915b50505050508152602001600b82018054610d7a90611ccf565b80601f0160208091040260200160405190810160405280929190818152602001828054610da690611ccf565b8015610df35780601f10610dc857610100808354040283529160200191610df3565b820191906000526020600020905b815481529060010190602001808311610dd657829003601f168201915b50505050508152602001600c82018054610e0c90611ccf565b80601f0160208091040260200160405190810160405280929190818152602001828054610e3890611ccf565b8015610e855780601f10610e5a57610100808354040283529160200191610e85565b820191906000526020600020905b815481529060010190602001808311610e6857829003601f168201915b50505050508152602001600d82015481525050815260200190600101906108d4565b50505050905090565b6001600080828254610ec29190611bb3565b925050819055506002604051806101c001604052803373ffffffffffffffffffffffffffffffffffffffff16815260200160005481526020018d81526020018c81526020018b81526020018a81526020018981526020018881526020018781526020018681526020018581526020018481526020018381526020014281525090806001815401808255809150506001900390600052602060002090600e020160009091909190915060008201518160000160006101000a81548173ffffffffffffffffffffffffffffffffffffffff021916908373ffffffffffffffffffffffffffffffffffffffff160217905550602082015181600101556040820151816002019080519060200190610fd79291906110f3565b506060820151816003019080519060200190610ff49291906110f3565b5060808201518160040190805190602001906110119291906110f3565b5060a082015181600501908051906020019061102e9291906110f3565b5060c082015181600601908051906020019061104b9291906110f3565b5060e08201518160070190805190602001906110689291906110f3565b506101008201518160080155610120820151816009015561014082015181600a01908051906020019061109c9291906110f3565b5061016082015181600b0190805190602001906110ba9291906110f3565b5061018082015181600c0190805190602001906110d89291906110f3565b506101a082015181600d015550505050505050505050505050565b8280546110ff90611ccf565b90600052602060002090601f0160209004810192826111215760008555611168565b82601f1061113a57805160ff1916838001178555611168565b82800160010185558215611168579182015b8281111561116757825182559160200191906001019061114c565b5b5090506111759190611179565b5090565b5b8082111561119257600081600090555060010161117a565b5090565b60006111a96111a484611ae4565b611ab3565b9050828152602081018484840111156111c157600080fd5b6111cc848285611c8d565b509392505050565b6000813590506111e381611d9f565b92915050565b600082601f8301126111fa57600080fd5b813561120a848260208601611196565b91505092915050565b60008135905061122281611db6565b92915050565b60008060008060008060008060008060006101608c8e03121561124a57600080fd5b60006112588e828f016111d4565b9b505060208c013567ffffffffffffffff81111561127557600080fd5b6112818e828f016111e9565b9a505060408c013567ffffffffffffffff81111561129e57600080fd5b6112aa8e828f016111e9565b99505060606112bb8e828f01611213565b98505060806112cc8e828f01611213565b97505060a06112dd8e828f01611213565b96505060c08c013567ffffffffffffffff8111156112fa57600080fd5b6113068e828f016111e9565b95505060e08c013567ffffffffffffffff81111561132357600080fd5b61132f8e828f016111e9565b9450506101008c013567ffffffffffffffff81111561134d57600080fd5b6113598e828f016111e9565b9350506101208c013567ffffffffffffffff81111561137757600080fd5b6113838e828f016111e9565b9250506101408c013567ffffffffffffffff8111156113a157600080fd5b6113ad8e828f016111e9565b9150509295989b509295989b9093969950565b60008060008060008060008060008060006101608c8e0312156113e257600080fd5b60008c013567ffffffffffffffff8111156113fc57600080fd5b6114088e828f016111e9565b9b505060208c013567ffffffffffffffff81111561142557600080fd5b6114318e828f016111e9565b9a505060408c013567ffffffffffffffff81111561144e57600080fd5b61145a8e828f016111e9565b99505060608c013567ffffffffffffffff81111561147757600080fd5b6114838e828f016111e9565b98505060808c013567ffffffffffffffff8111156114a057600080fd5b6114ac8e828f016111e9565b97505060a08c013567ffffffffffffffff8111156114c957600080fd5b6114d58e828f016111e9565b96505060c06114e68e828f01611213565b95505060e06114f78e828f01611213565b9450506101008c013567ffffffffffffffff81111561151557600080fd5b6115218e828f016111e9565b9350506101208c013567ffffffffffffffff81111561153f57600080fd5b61154b8e828f016111e9565b9250506101408c013567ffffffffffffffff81111561156957600080fd5b6115758e828f016111e9565b9150509295989b509295989b9093969950565b60006115948383611739565b905092915050565b60006115a88383611891565b905092915050565b6115b981611c57565b82525050565b6115c881611c09565b82525050565b6115d781611c09565b82525050565b60006115e882611b34565b6115f28185611b6f565b93508360208202850161160485611b14565b8060005b8581101561164057848403895281516116218582611588565b945061162c83611b55565b925060208a01995050600181019050611608565b50829750879550505050505092915050565b600061165d82611b3f565b6116678185611b80565b93508360208202850161167985611b24565b8060005b858110156116b55784840389528151611696858261159c565b94506116a183611b62565b925060208a0199505060018101905061167d565b50829750879550505050505092915050565b60006116d282611b4a565b6116dc8185611b91565b93506116ec818560208601611c9c565b6116f581611d8e565b840191505092915050565b600061170b82611b4a565b6117158185611ba2565b9350611725818560208601611c9c565b61172e81611d8e565b840191505092915050565b60006101c08301600083015161175260008601826115bf565b50602083015161176560208601826115bf565b50604083015161177860408601826119f7565b506060830151848203606086015261179082826116c7565b915050608083015184820360808601526117aa82826116c7565b91505060a08301516117bf60a08601826119f7565b5060c08301516117d260c08601826119f7565b5060e08301516117e560e08601826119f7565b506101008301518482036101008601526117ff82826116c7565b91505061012083015184820361012086015261181b82826116c7565b91505061014083015184820361014086015261183782826116c7565b91505061016083015184820361016086015261185382826116c7565b91505061018083015184820361018086015261186f82826116c7565b9150506101a08301516118866101a08601826119f7565b508091505092915050565b60006101c0830160008301516118aa60008601826115bf565b5060208301516118bd60208601826119f7565b50604083015184820360408601526118d582826116c7565b915050606083015184820360608601526118ef82826116c7565b9150506080830151848203608086015261190982826116c7565b91505060a083015184820360a086015261192382826116c7565b91505060c083015184820360c086015261193d82826116c7565b91505060e083015184820360e086015261195782826116c7565b91505061010083015161196e6101008601826119f7565b506101208301516119836101208601826119f7565b5061014083015184820361014086015261199d82826116c7565b9150506101608301518482036101608601526119b982826116c7565b9150506101808301518482036101808601526119d582826116c7565b9150506101a08301516119ec6101a08601826119f7565b508091505092915050565b611a0081611c4d565b82525050565b611a0f81611c4d565b82525050565b600060a082019050611a2a60008301886115ce565b8181036020830152611a3c8187611700565b9050611a4b60408301866115b0565b611a586060830185611a06565b611a656080830184611a06565b9695505050505050565b60006020820190508181036000830152611a8981846115dd565b905092915050565b60006020820190508181036000830152611aab8184611652565b905092915050565b6000604051905081810181811067ffffffffffffffff82111715611ada57611ad9611d5f565b5b8060405250919050565b600067ffffffffffffffff821115611aff57611afe611d5f565b5b601f19601f8301169050602081019050919050565b6000819050602082019050919050565b6000819050602082019050919050565b600081519050919050565b600081519050919050565b600081519050919050565b6000602082019050919050565b6000602082019050919050565b600082825260208201905092915050565b600082825260208201905092915050565b600082825260208201905092915050565b600082825260208201905092915050565b6000611bbe82611c4d565b9150611bc983611c4d565b9250827fffffffffffffffffffffffffffffffffffffffffffffffffffffffffffffffff03821115611bfe57611bfd611d01565b5b828201905092915050565b6000611c1482611c2d565b9050919050565b6000611c2682611c2d565b9050919050565b600073ffffffffffffffffffffffffffffffffffffffff82169050919050565b6000819050919050565b6000611c6282611c69565b9050919050565b6000611c7482611c7b565b9050919050565b6000611c8682611c2d565b9050919050565b82818337600083830152505050565b60005b83811015611cba578082015181840152602081019050611c9f565b83811115611cc9576000848401525b50505050565b60006002820490506001821680611ce757607f821691505b60208210811415611cfb57611cfa611d30565b5b50919050565b7f4e487b7100000000000000000000000000000000000000000000000000000000600052601160045260246000fd5b7f4e487b7100000000000000000000000000000000000000000000000000000000600052602260045260246000fd5b7f4e487b7100000000000000000000000000000000000000000000000000000000600052604160045260246000fd5b6000601f19601f8301169050919050565b611da881611c1b565b8114611db357600080fd5b50565b611dbf81611c4d565b8114611dca57600080fd5b5056fea26469706673582212203720ec0097a9c1c84a5970bc3c3ed9df25d3f30b212bad7b0ec9d51401c830c764736f6c63430008000033",
  "linkReferences": {},
  "deployedLinkReferences": {}
}