{
  "_format": "hh-sol-artifact-1",
  "contractName": "Parking",
  "sourceName": "contracts/Parking.sol",
  "abi": [
    {
      "inputs": [
        {
          "internalType": "string",
          "name": "parkingName",
          "type": "string"
        },
        {
          "internalType": "string",
          "name": "parkingAddress",
          "type": "string"
        },
        {
          "internalType": "string",
          "name": "parkingCity",
          "type": "string"
        },
        {
          "internalType": "string",
          "name": "parkingState",
          "type": "string"
        },
        {
          "internalType": "string",
          "name": "parkingCountry",
          "type": "string"
        },
        {
          "internalType": "uint256",
          "name": "parkingCapacity",
          "type": "uint256"
        },
        {
          "internalType": "uint256",
          "name": "parkingAmount",
          "type": "uint256"
        },
        {
          "internalType": "string",
          "name": "amountUnit",
          "type": "string"
        },
        {
          "internalType": "string",
          "name": "parkingDetails",
          "type": "string"
        },
        {
          "internalType": "string",
          "name": "vehicleType",
          "type": "string"
        }
      ],
      "name": "addParkingToBlockchain",
      "outputs": [],
      "stateMutability": "nonpayable",
      "type": "function"
    },
    {
      "inputs": [],
      "name": "getAllParkingList",
      "outputs": [
        {
          "components": [
            {
              "internalType": "address",
              "name": "owner",
              "type": "address"
            },
            {
              "internalType": "uint256",
              "name": "parkingId",
              "type": "uint256"
            },
            {
              "internalType": "string",
              "name": "parkingName",
              "type": "string"
            },
            {
              "internalType": "string",
              "name": "parkingAddress",
              "type": "string"
            },
            {
              "internalType": "string",
              "name": "parkingCity",
              "type": "string"
            },
            {
              "internalType": "string",
              "name": "parkingState",
              "type": "string"
            },
            {
              "internalType": "string",
              "name": "parkingCountry",
              "type": "string"
            },
            {
              "internalType": "uint256",
              "name": "parkingCapacity",
              "type": "uint256"
            },
            {
              "internalType": "uint256",
              "name": "parkingAmount",
              "type": "uint256"
            },
            {
              "internalType": "string",
              "name": "amountUnit",
              "type": "string"
            },
            {
              "internalType": "string",
              "name": "parkingDetails",
              "type": "string"
            },
            {
              "internalType": "string",
              "name": "vehicleType",
              "type": "string"
            },
            {
              "internalType": "uint256",
              "name": "timestamp",
              "type": "uint256"
            }
          ],
          "internalType": "struct Parking.ParkingStruct[]",
          "name": "",
          "type": "tuple[]"
        }
      ],
      "stateMutability": "view",
      "type": "function"
    }
  ],
  "bytecode": "0x608060405260008055600060015534801561001957600080fd5b50610faf806100296000396000f3fe608060405234801561001057600080fd5b50600436106100365760003560e01c8063668393bc1461003b578063bcf13a0514610059575b600080fd5b610043610075565b6040516100509190610ce6565b60405180910390f35b610073600480360381019061006e9190610921565b6105e3565b005b60606002805480602002602001604051908101604052809291908181526020016000905b828210156105da57838290600052602060002090600d0201604051806101a00160405290816000820160009054906101000a900473ffffffffffffffffffffffffffffffffffffffff1673ffffffffffffffffffffffffffffffffffffffff1673ffffffffffffffffffffffffffffffffffffffff1681526020016001820154815260200160028201805461012d90610e92565b80601f016020809104026020016040519081016040528092919081815260200182805461015990610e92565b80156101a65780601f1061017b576101008083540402835291602001916101a6565b820191906000526020600020905b81548152906001019060200180831161018957829003601f168201915b505050505081526020016003820180546101bf90610e92565b80601f01602080910402602001604051908101604052809291908181526020018280546101eb90610e92565b80156102385780601f1061020d57610100808354040283529160200191610238565b820191906000526020600020905b81548152906001019060200180831161021b57829003601f168201915b5050505050815260200160048201805461025190610e92565b80601f016020809104026020016040519081016040528092919081815260200182805461027d90610e92565b80156102ca5780601f1061029f576101008083540402835291602001916102ca565b820191906000526020600020905b8154815290600101906020018083116102ad57829003601f168201915b505050505081526020016005820180546102e390610e92565b80601f016020809104026020016040519081016040528092919081815260200182805461030f90610e92565b801561035c5780601f106103315761010080835404028352916020019161035c565b820191906000526020600020905b81548152906001019060200180831161033f57829003601f168201915b5050505050815260200160068201805461037590610e92565b80601f01602080910402602001604051908101604052809291908181526020018280546103a190610e92565b80156103ee5780601f106103c3576101008083540402835291602001916103ee565b820191906000526020600020905b8154815290600101906020018083116103d157829003601f168201915b50505050508152602001600782015481526020016008820154815260200160098201805461041b90610e92565b80601f016020809104026020016040519081016040528092919081815260200182805461044790610e92565b80156104945780601f1061046957610100808354040283529160200191610494565b820191906000526020600020905b81548152906001019060200180831161047757829003601f168201915b50505050508152602001600a820180546104ad90610e92565b80601f01602080910402602001604051908101604052809291908181526020018280546104d990610e92565b80156105265780601f106104fb57610100808354040283529160200191610526565b820191906000526020600020905b81548152906001019060200180831161050957829003601f168201915b50505050508152602001600b8201805461053f90610e92565b80601f016020809104026020016040519081016040528092919081815260200182805461056b90610e92565b80156105b85780601f1061058d576101008083540402835291602001916105b8565b820191906000526020600020905b81548152906001019060200180831161059b57829003601f168201915b50505050508152602001600c8201548152505081526020019060010190610099565b50505050905090565b60016000808282546105f59190610dbe565b925050819055506002604051806101a001604052803373ffffffffffffffffffffffffffffffffffffffff16815260200160005481526020018c81526020018b81526020018a81526020018981526020018881526020018781526020018681526020018581526020018481526020018381526020014281525090806001815401808255809150506001900390600052602060002090600d020160009091909190915060008201518160000160006101000a81548173ffffffffffffffffffffffffffffffffffffffff021916908373ffffffffffffffffffffffffffffffffffffffff160217905550602082015181600101556040820151816002019080519060200190610704929190610801565b506060820151816003019080519060200190610721929190610801565b50608082015181600401908051906020019061073e929190610801565b5060a082015181600501908051906020019061075b929190610801565b5060c0820151816006019080519060200190610778929190610801565b5060e0820151816007015561010082015181600801556101208201518160090190805190602001906107ab929190610801565b5061014082015181600a0190805190602001906107c9929190610801565b5061016082015181600b0190805190602001906107e7929190610801565b5061018082015181600c0155505050505050505050505050565b82805461080d90610e92565b90600052602060002090601f01602090048101928261082f5760008555610876565b82601f1061084857805160ff1916838001178555610876565b82800160010185558215610876579182015b8281111561087557825182559160200191906001019061085a565b5b5090506108839190610887565b5090565b5b808211156108a0576000816000905550600101610888565b5090565b60006108b76108b284610d39565b610d08565b9050828152602081018484840111156108cf57600080fd5b6108da848285610e50565b509392505050565b600082601f8301126108f357600080fd5b81356109038482602086016108a4565b91505092915050565b60008135905061091b81610f62565b92915050565b6000806000806000806000806000806101408b8d03121561094157600080fd5b60008b013567ffffffffffffffff81111561095b57600080fd5b6109678d828e016108e2565b9a505060208b013567ffffffffffffffff81111561098457600080fd5b6109908d828e016108e2565b99505060408b013567ffffffffffffffff8111156109ad57600080fd5b6109b98d828e016108e2565b98505060608b013567ffffffffffffffff8111156109d657600080fd5b6109e28d828e016108e2565b97505060808b013567ffffffffffffffff8111156109ff57600080fd5b610a0b8d828e016108e2565b96505060a0610a1c8d828e0161090c565b95505060c0610a2d8d828e0161090c565b94505060e08b013567ffffffffffffffff811115610a4a57600080fd5b610a568d828e016108e2565b9350506101008b013567ffffffffffffffff811115610a7457600080fd5b610a808d828e016108e2565b9250506101208b013567ffffffffffffffff811115610a9e57600080fd5b610aaa8d828e016108e2565b9150509295989b9194979a5092959850565b6000610ac88383610b8d565b905092915050565b610ad981610e14565b82525050565b6000610aea82610d79565b610af48185610d9c565b935083602082028501610b0685610d69565b8060005b85811015610b425784840389528151610b238582610abc565b9450610b2e83610d8f565b925060208a01995050600181019050610b0a565b50829750879550505050505092915050565b6000610b5f82610d84565b610b698185610dad565b9350610b79818560208601610e5f565b610b8281610f51565b840191505092915050565b60006101a083016000830151610ba66000860182610ad0565b506020830151610bb96020860182610cd7565b5060408301518482036040860152610bd18282610b54565b91505060608301518482036060860152610beb8282610b54565b91505060808301518482036080860152610c058282610b54565b91505060a083015184820360a0860152610c1f8282610b54565b91505060c083015184820360c0860152610c398282610b54565b91505060e0830151610c4e60e0860182610cd7565b50610100830151610c63610100860182610cd7565b50610120830151848203610120860152610c7d8282610b54565b915050610140830151848203610140860152610c998282610b54565b915050610160830151848203610160860152610cb58282610b54565b915050610180830151610ccc610180860182610cd7565b508091505092915050565b610ce081610e46565b82525050565b60006020820190508181036000830152610d008184610adf565b905092915050565b6000604051905081810181811067ffffffffffffffff82111715610d2f57610d2e610f22565b5b8060405250919050565b600067ffffffffffffffff821115610d5457610d53610f22565b5b601f19601f8301169050602081019050919050565b6000819050602082019050919050565b600081519050919050565b600081519050919050565b6000602082019050919050565b600082825260208201905092915050565b600082825260208201905092915050565b6000610dc982610e46565b9150610dd483610e46565b9250827fffffffffffffffffffffffffffffffffffffffffffffffffffffffffffffffff03821115610e0957610e08610ec4565b5b828201905092915050565b6000610e1f82610e26565b9050919050565b600073ffffffffffffffffffffffffffffffffffffffff82169050919050565b6000819050919050565b82818337600083830152505050565b60005b83811015610e7d578082015181840152602081019050610e62565b83811115610e8c576000848401525b50505050565b60006002820490506001821680610eaa57607f821691505b60208210811415610ebe57610ebd610ef3565b5b50919050565b7f4e487b7100000000000000000000000000000000000000000000000000000000600052601160045260246000fd5b7f4e487b7100000000000000000000000000000000000000000000000000000000600052602260045260246000fd5b7f4e487b7100000000000000000000000000000000000000000000000000000000600052604160045260246000fd5b6000601f19601f8301169050919050565b610f6b81610e46565b8114610f7657600080fd5b5056fea26469706673582212208a73a11fdebcb1d9407e2668c0a496aaddd6ace833cbf0e4085499adc7ac933664736f6c63430008000033",
  "linkReferences": {},
  "deployedLinkReferences": {}
}